:020000040800F2
:1000000000200020010C0008290B00082B0B000821
:1000100000000000000000000000000000000000E0
:100020000000000000000000000000002D0B000890
:1000300000000000000000002F0B0008310B00083A
:10004000510C0008510C0008510C0008510C00081C
:10005000510C0008510C0008510C0008510C00080C
:10006000510C0008510C0008510C0008510C0008FC
:10007000510C0008510C0008510C0008510C0008EC
:10008000510C0008510C000800000000510C000841
:10009000510C0008A9030008510C0008510C00087D
:1000A000510C0008510C0008510C0008510C0008BC
:1000B000510C000800000000510C00080000000076
:1000C000002243088B4274D303098B425FD3030A97
:1000D0008B4244D3030B8B4228D3030C8B420DD3AA
:1000E000FF22090212BA030C8B4202D31212090238
:1000F00065D0030B8B4219D300E0090AC30B8B4276
:1001000001D3CB03C01A5241830B8B4201D38B0323
:10011000C01A5241430B8B4201D34B03C01A5241C8
:10012000030B8B4201D30B03C01A5241C30A8B420B
:1001300001D3CB02C01A5241830A8B4201D38B02F6
:10014000C01A5241430A8B4201D34B02C01A52419A
:10015000030A8B4201D30B02C01A5241CDD2C3090C
:100160008B4201D3CB01C01A524183098B4201D388
:100170008B01C01A524143098B4201D34B01C01A73
:10018000524103098B4201D30B01C01A5241C308EB
:100190008B4201D3CB00C01A524183088B4201D35A
:1001A0008B00C01A524143088B4201D34B00C01A46
:1001B0005241411A00D20146524110467047FFE7B2
:1001C00001B5002000F006F802BDC0460029F7D0B6
:1001D00076E770477047C04610B5064C2378002B71
:1001E00007D1054B002B02D0044800E000BF0123DB
:1001F000237010BD1000002000000000AC0C0008AF
:10020000044B10B5002B03D00349044800E000BFA5
:1002100010BDC0460000000014000020AC0C000817
:10022000F0B5DE4657464E464546E0B58BB018223F
:10023000002104A800F00DFD594B5A698021C90323
:100240000A435A615A690A400392039A5A69802103
:1002500089020A435A615A690A400292029A5A690B
:100260008021C9020A435A615B690B400193019BDB
:100270004C4D0126AE6202239A46AB620233994688
:10028000AB6204339846AB6208339B46AB621033D3
:10029000AB624022AA628021A96204960896902748
:1002A000FF0504A80100380000F046FC5046049009
:1002B00000240594089604A80100380000F03CFCD6
:1002C000484604900594089604A80100380000F000
:1002D00033FC404604900594089604A801003800B9
:1002E00000F02AFC0496059606940794089404A846
:1002F0000100280000F020FC50460490059606946A
:100300000794089404A80100280000F015FC484652
:100310000490059606940794089404A80100280008
:1003200000F00AFC40460490059606940794089451
:1003300004A80100280000F0FFFB58460490059631
:1003400006940794089404A80100280000F0F4FB28
:1003500020230493059606940794089404AB19008F
:10036000280000F0E9FB40220492059606940794C9
:10037000089404AB1900280000F0DEFB80210491F2
:10038000059606940794089404A9280000F0D4FB6D
:100390000BB0F0BCBB46B246A946A046F0BDC04675
:1003A000001002400004004810B5554800F097FACC
:1003B000544B1B68012B04D0534B1B68012B4FD0AF
:1003C00010BD524B01229A6201329A6202329A6245
:1003D00004329A6208329A6210329A6220329A6229
:1003E00040329A624A4B1B68072B06D89A0049494B
:1003F0008A589746454A01219161474A12689B18DD
:10040000434A1360062B22DD130007221A60424B79
:10041000083A1A60D4E73D4A02219161EDE73B4A70
:1004200004219161E9E7394A08219161E5E7374AFA
:1004300010219161E1E7354A20219161DDE7334ADE
:1004400040219161D9E7314A80219161D5E7002BA4
:10045000B6DC2F4B00221A602F4B01321A60AFE737
:100460002A4B01229A6101329A6102329A61043266
:100470009A6108329A6110329A6120329A61403250
:100480009A61234B1B68072B06D89A0023498A5888
:1004900097461E4A012191621F4A12689B181C4A06
:1004A0001360062B22DD130007221A601A4B083A4C
:1004B0001A6085E7154A02219162EDE7134A04218B
:1004C0009162E9E7114A08219162E5E70F4A10219C
:1004D0009162E1E70D4A20219162DDE70B4A40215C
:1004E0009162D9E7094A80219162D5E7002B00DDAE
:1004F00066E7074B00221A60074B01321A605FE77C
:10050000440000203C000020380000200004004887
:100510002C000020C40C000800000020E40C00089F
:1005200072B6FEE710B50C480C4B03600C4B4360F1
:10053000002383600B4AC26003614361803383619F
:1005400000F0C4FA002804D1074B802292031A60FD
:1005500010BDFFF7E5FFC046440000200044014005
:100560003F1F0000E703000000E100E010B51A4A59
:10057000136801218B431360174B1B68DB07FBD407
:10058000164A136801210B431360144B1B689B0729
:10059000FBD5124B1A68F8218A4378390A431A604E
:1005A0005A6870318A435A605A680D490A405A6045
:1005B0005A6803218A435A60084B5B680C221A422E
:1005C000FAD1084800F014FB032000F087F8002857
:1005D00000D110BDFFF7A4FF002002400010024030
:1005E000FFF8FFFF00127A0010B500F09FF8FFF748
:1005F000BDFFFFF715FEFFF795FF314800F034F916
:1006000034E0304A1268002A0DD19022D2051269D6
:10061000520708D42C4A002111602A4A0120106098
:100620002A4A11603AE0294A1268002A36D19022FB
:10063000D2051269120731D4234A00211160214AE0
:100640001160224A0131116028E01D4BF422FF3273
:10065000DA601F4B00221A60194800F037FA902325
:10066000DB051A69012313401A4A13609023DB0546
:100670001A6901231340174A1360134A1268002AAB
:10068000BFD19022D20512699207BAD40E4A012135
:1006900011600C4A002111600C4A1160002BDED160
:1006A0009023DB051B69DB07D9D4094B1B68002BA2
:1006B000CBD1034B084ADA60054B01221A60CBE725
:1006C00044000020380000203C00002034000020BE
:1006D0003000002040000020E703000010B50400B7
:1006E0000F4B1978FA208000FFF7EAFC01000D4B50
:1006F0001868FFF7E5FC00F085F800280DD1032C01
:1007000001D901200AE0013000222100404200F01E
:1007100075F8054B1C60002000E0012010BDC046AC
:10072000040000200C0000200800002010B5064A3C
:10073000136810210B4313600320FFF7CFFF00F075
:1007400065F8002010BDC04600200240034A116831
:10075000034B1B785B1813607047C0468C00002069
:100760000400002070B5002811DB8308134DC0334E
:100770009B005C5903221040C000FC3216008640EA
:10078000B44389010A40824022435A5170BD0F236D
:100790000340083B9B0806339B00094A9446634488
:1007A0005C6803221040C000FC3215008540AC4359
:1007B00089010A40824022435A60E7E700E100E0F5
:1007C00000ED00E0013880235B0498420FD2094A13
:1007D00050600948036A1B021B0AC02109060B432B
:1007E00003620023936007331360002070470120E9
:1007F000FCE7C04610E000E000ED00E010B5FFF7B8
:10080000B1FF10BD10B5FFF7DDFF10BD82B00A4B80
:10081000996901221143996199690A400092009AED
:10082000DA69802149050A43DA61DB690B400193EB
:10083000019B02B07047C0460010024082B00268BF
:10084000074B9A4201D002B07047064B9A6980214B
:1008500089020A439A619B690B400193019BF2E76D
:1008600000440140001002403D23C35C012B26D10F
:100870003C330222C2540268D36801210B43D36087
:100880000368114A93420FD08022D20593420BD0C5
:100890000E4A934208D00E4A934205D01A680121AD
:1008A0000A431A6000200BE0996807220A40062AD2
:1008B00007D01A6801210A431A60002000E00120D5
:1008C00070470020FCE7C046002C014000040040B7
:1008D000004001407047704770477047704770B5DF
:1008E00004000368DE681D69AA070ED5B2070CD59F
:1008F000032252421A610123037703689B699B0715
:1009000051D0FFF7E9FF002323776B0712D5730758
:1009100010D52368052252421A61022323772368E7
:100920009A69C0239B001A4243D02000FFF7D4FFEE
:10093000002323772B0710D533070ED52368092210
:1009400052421A61042323772368DB699B0737D05F
:100950002000FFF7C1FF00232377EB0612D5F30633
:1009600010D52368112252421A6108232377236885
:10097000DA69C0239B001A4229D02000FFF7ACFFA0
:1009800000232377EB0701D5F30727D42B0601D5E6
:1009900033062BD46B0601D573062FD4AD0601D5D3
:1009A000B60633D470BDFFF796FF2000FFF795FF22
:1009B000A9E72000FFF78FFF2000FFF78EFFB7E7C2
:1009C0002000FFF788FF2000FFF787FFC3E7200024
:1009D000FFF781FF2000FFF780FFD1E723680222A5
:1009E00052421A612000FFF775FFCFE7236881228A
:1009F00052421A61200000F096F8CBE723684122AA
:100A000052421A612000FFF769FFC7E723682122DD
:100A100052421A61200000F085F8C3E70368244AB7
:100A2000904206D08022D205904202D0214A9042C4
:100A300003D1702293434A6813431D4A904212D057
:100A40008022D20590420ED01A4A90420BD01A4A08
:100A5000904208D0194A904205D0194A904202D0DB
:100A6000184A904203D1184A1A40CB681343802297
:100A700093434A69134303608B68C3620B688362C4
:100A80000B4B984208D00D4B984205D00C4B984226
:100A900002D00C4B984201D10B69036301234361DF
:100AA0000269134203D00369012293430361704733
:100AB000002C0140000400400020004000400140A4
:100AC0000044014000480140FFFCFFFF70B5041ED8
:100AD00026D03D23C35C002B1CD03D25022363554B
:100AE000210001C9FFF79AFF01234622A354083AC7
:100AF000A3540132A3540132A3540132A35401324E
:100B0000A3540132A3540132A3540132A3546355B8
:100B1000002070BD3C330022C254FFF78FFEDCE79B
:100B20000120F6E770477047FEE7FEE77047704721
:100B300010B5FFF70BFE10BDF0B5002216E00B69F3
:100B40009C46C4682B006B435E00F618F743B44321
:100B500066465E433443C4604C68022C26D04D6820
:100B600004683C406B432343036001320C6823005C
:100B7000D3403BD00123934025001D401C42F4D0BC
:100B80004B68013B012BDAD88F6883682C006C43DB
:100B900066003619B3437C43234383600E68CC68F8
:100BA0004368B343744323434360C8E7FF2D0DD824
:100BB0004C69A446066A1C006C436C4325012D1B3E
:100BC000AE4365466C4334430462C8E74C69A446AF
:100BD000466A2D0A2C006C436C436C4325012D1B87
:100BE000AE4365466C4334434462B8E70020F0BD31
:100BF000014B18607047C0460C0000207047000091
:100C00000D488546FFF7FAFF0C480D490D4A0023B1
:100C100002E0D458C4500433C4188C42F9D30A4AB1
:100C20000A4C002301E013600432A242FBD300F01F
:100C300019F8FFF7D9FCFEE7002000200000002093
:100C4000100000200C0D0008100000209000002073
:100C5000FEE703008218934200D1704719700133F8
:100C6000F9E7000070B500260C4C0D4D641BA41074
:100C7000A64209D1002600F019F80A4C0A4D641B5F
:100C8000A410A64205D170BDB300EB5898470136B9
:100C9000EEE7B300EB5898470136F2E7040D000881
:100CA000040D0008080D0008040D0008F8B5C04642
:100CB000F8BC08BC9E467047F8B5C046F8BC08BCF6
:040CC0009E46704795
:100CC400F4030008160400081E04000826040008A3
:100CD4002E040008360400083E04000846040008F8
:100CE40092040008B4040008BC040008C40400080A
:100CF400CC040008D4040008DC040008E404000860
:040D040001020008E0
:040D0800D901000805
:100D0C0001000000010000000400000000127A0045
:0400000508000C01E2
:00000001FF
