:020000040800F2
:1000000000200020390B0008DD050008DF0500088E
:1000100000000000000000000000000000000000E0
:10002000000000000000000000000000E1050008E2
:100030000000000000000000E3050008E5050008DE
:10004000890B0008890B0008890B0008890B000840
:10005000890B0008890B0008890B0008890B000830
:10006000890B0008890B0008890B0008890B000820
:10007000890B0008890B0008890B0008890B000810
:10008000890B0008890B000800000000890B00089C
:10009000890B0008A9030008890B0008890B0008D8
:1000A000890B0008890B0008890B0008890B0008E0
:1000B000890B000800000000890B00080000000008
:1000C00010B5064C2378002B07D1054B002B02D02E
:1000D000044800E000BF0123237010BD1000002081
:1000E00000000000E40B0008044B10B5002B03D007
:1000F0000349044800E000BF10BDC04600000000F6
:1001000014000020E40B0008002243088B4274D343
:1001100003098B425FD3030A8B4244D3030B8B4208
:1001200028D3030C8B420DD3FF22090212BA030C11
:100130008B4202D31212090265D0030B8B4219D3F2
:1001400000E0090AC30B8B4201D3CB03C01A524112
:10015000830B8B4201D38B03C01A5241430B8B425A
:1001600001D34B03C01A5241030B8B4201D30B0343
:10017000C01A5241C30A8B4201D3CB02C01A52416A
:10018000830A8B4201D38B02C01A5241430A8B422D
:1001900001D34B02C01A5241030A8B4201D30B0216
:1001A000C01A5241CDD2C3098B4201D3CB01C01A30
:1001B000524183098B4201D38B01C01A524143093A
:1001C0008B4201D34B01C01A524103098B4201D328
:1001D0000B01C01A5241C3088B4201D3CB00C01A95
:1001E000524183088B4201D38B00C01A524143080D
:1001F0008B4201D34B00C01A5241411A00D2014632
:10020000524110467047FFE701B5002000F006F8A4
:1002100002BDC0460029F7D076E770477047C04658
:10022000F0B5DE4657464E464546E0B58BB018223F
:10023000002104A800F0A9FC594B5A698021C90388
:100240000A435A615A690A400392039A5A69802103
:1002500089020A435A615A690A400292029A5A690B
:100260008021C9020A435A615B690B400193019BDB
:100270004C4D0126AE6202239A46AB620233994688
:10028000AB6204339846AB6208339B46AB621033D3
:10029000AB624022AA628021A96204960896902748
:1002A000FF0504A80100380000F0A1F950460490B1
:1002B00000240594089604A80100380000F097F97E
:1002C000484604900594089604A80100380000F000
:1002D0008EF9404604900594089604A80100380061
:1002E00000F085F90496059606940794089404A8EE
:1002F0000100280000F07BF9504604900596069412
:100300000794089404A80100280000F070F94846FA
:100310000490059606940794089404A80100280008
:1003200000F065F9404604900596069407940894F9
:1003300004A80100280000F05AF9584604900596D8
:1003400006940794089404A80100280000F04FF9CF
:1003500020230493059606940794089404AB19008F
:10036000280000F044F94022049205960694079470
:10037000089404AB1900280000F039F98021049199
:10038000059606940794089404A9280000F02FF914
:100390000BB0F0BCBB46B246A946A046F0BDC04675
:1003A000001002400004004870B5354800F06BFAB8
:1003B0009021C9050B69022003405A1E9341DBB20C
:1003C000304A13600A6904242240551EAA412E4D6A
:1003D0002A600A6908210A40551EAA412B4D2A604D
:1003E0002B4A012595629062946291620831916274
:1003F000103191622031916240319162012B00D025
:1004000070BD244B1B68072B06D89A0022498A58D6
:1004100097461F4A01219161204A12689B181D4A84
:100420001360062B22DD130007221A601B4B083ACB
:100430001A60E5E7164A02219161EDE7144A0421AA
:100440009161E9E7124A08219161E5E7104A10211C
:100450009161E1E70E4A20219161DDE70C4A4021DC
:100460009161D9E70A4A80219161D5E7002BC7DC69
:10047000084B00221A60094B01321A60C0E7C046DF
:10048000440000203C000020380000203400002000
:10049000000400482C000020FC0B00080000002095
:1004A00072B6FEE710B50C480C4B03600C4B436072
:1004B000002383600B4AC260036143618033836120
:1004C00000F0D8FA002804D1074B802292031A606A
:1004D00010BDFFF7E5FFC046440000200044014086
:1004E0003F1F0000E703000000E100E010B51A4ADA
:1004F000136801218B431360174B1B68DB07FBD488
:10050000164A136801210B431360144B1B689B07A9
:10051000FBD5124B1A68F8218A4378390A431A60CE
:100520005A6870318A435A605A680D490A405A60C5
:100530005A6803218A435A60084B5B680C221A42AE
:10054000FAD1084800F0F2FA032000F0ADF80028D4
:1005500000D110BDFFF7A4FF0020024000100240B0
:10056000FFF8FFFF00127A0010B500F0C5F8FFF7A2
:10057000BDFFFFF755FEFFF795FF144800F02CF97B
:100580000DE0124BF422FF32DA60114B00221A60A8
:100590000E4C200000F06EFA200000F01DF99023B0
:1005A000DB051A69012313400A4A1360012BF6D1B7
:1005B000064800F047F9064B1B68002BE1D1034BBE
:1005C000054ADA60024B01221A60E1E7440000208C
:1005D0003000002040000020E7030000FEE7FEE7B7
:1005E0007047704710B500F097F810BD7047F0B530
:1005F000002216E00B699C46C4682B006B435E002A
:10060000F618F743B44366465E433443C4604C680F
:10061000022C26D04D6804683C406B4323430360A2
:1006200001320C682300D3403BD0012393402500C6
:100630001D401C42F4D04B68013B012BDAD88F6877
:1006400083682C006C4366003619B3437C43234314
:1006500083600E68CC684368B343744323434360AC
:10066000C8E7FF2D0DD84C69A446066A1C006C43F0
:100670006C4325012D1BAE4365466C433443046235
:10068000C8E74C69A446466A2D0A2C006C436C43AB
:100690006C4325012D1BAE4365466C4334434462D5
:1006A000B8E70020F0BD000010B504000F4B19782A
:1006B000FA208000FFF728FD01000D4B1868FFF7B6
:1006C00023FD00F085F800280DD1032C01D901206D
:1006D0000AE0013000222100404200F075F8054B8D
:1006E0001C60002000E0012010BDC0460800002072
:1006F000040000200C00002010B5064A13681021E9
:100700000B4313600320FFF7CFFF00F0E1F9002057
:1007100010BDC04600200240034A1168034B1B78FD
:100720005B1813607047C0468C0000200800002052
:1007300070B5002811DB8308134DC0339B005C5952
:1007400003221040C000FC3216008640B4438901E9
:100750000A40824022435A5170BD0F230340083B98
:100760009B0806339B00094A944663445C68032255
:100770001040C000FC3215008540AC4389010A409E
:10078000824022435A60E7E700E100E000ED00E02C
:10079000013880235B0498420FD2094A506009480F
:1007A000036A1B021B0AC02109060B4303620023D4
:1007B000936007331360002070470120FCE7C046B8
:1007C00010E000E000ED00E010B5FFF7B1FF10BD54
:1007D00010B5FFF7DDFF10BD3D23C35C012B26D113
:1007E0003C330222C2540268D36801210B43D36018
:1007F0000368114A93420FD08022D20593420BD056
:100800000E4A934208D00E4A934205D01A6801213D
:100810000A431A6000200BE0996807220A40062A62
:1008200007D01A6801210A431A60002000E0012065
:1008300070470020FCE7C046002C01400004004047
:10084000004001400268D36801218B43D3600368F4
:10085000196A084A114207D1196A074A114203D19D
:100860001A6801218A431A603D230122C2540020E4
:100870007047C046111100004404000070477047E3
:1008800070477047704770B504000368DE681D69E3
:10089000AA070ED5B2070CD5032252421A610123D2
:1008A000037703689B699B0751D0FFF7E9FF00239B
:1008B00023776B0712D5730710D5236805225242A0
:1008C0001A610223237723689A69C0239B001A4286
:1008D00043D02000FFF7D4FF002323772B0710D548
:1008E00033070ED52368092252421A610423237765
:1008F0002368DB699B0737D02000FFF7C1FF002387
:100900002377EB0612D5F30610D523681122524245
:100910001A61082323772368DA69C0239B001A42EF
:1009200029D02000FFF7ACFF00232377EB0701D588
:10093000F30727D42B0601D533062BD46B0601D53C
:1009400073062FD4AD0601D5B60633D470BDFFF7BC
:1009500096FF2000FFF795FFA9E72000FFF78FFF24
:100960002000FFF78EFFB7E72000FFF788FF200089
:10097000FFF787FFC3E72000FFF781FF2000FFF7A5
:1009800080FFD1E72368022252421A612000FFF75C
:1009900075FFCFE72368812252421A61200000F0E0
:1009A00096F8CBE72368412252421A612000FFF7F4
:1009B00069FFC7E72368212252421A61200000F034
:1009C00085F8C3E70368244A904206D08022D20506
:1009D000904202D0214A904203D1702293434A6848
:1009E00013431D4A904212D08022D20590420ED06D
:1009F0001A4A90420BD01A4A904208D0194A9042A3
:100A000005D0194A904202D0184A904203D1184AA0
:100A10001A40CB681343802293434A69134303600F
:100A20008B68C3620B6883620B4B984208D00D4BF6
:100A3000984205D00C4B984202D00C4B984201D101
:100A40000B690363012343610269134203D0036905
:100A50000122934303617047002C014000040040D1
:100A60000020004000400140004401400048014097
:100A7000FFFCFFFF70B5041E26D03D23C35C002B96
:100A80001CD03D2502236355210001C9FFF79AFFC1
:100A900001234622A354083AA3540132A35401323D
:100AA000A3540132A3540132A3540132A35401329E
:100AB000A3540132A3546355002070BD3C3300227F
:100AC000C25400F01DF8DCE70120F6E770477047DC
:100AD00082B00A4B996901221143996199690A40D0
:100AE0000092009ADA69802149050A43DA61DB69DC
:100AF0000B400193019B02B07047C04600100240BA
:100B000082B00268074B9A4201D002B07047064B90
:100B10009A69802189020A439A619B690B4001937B
:100B2000019BF2E70044014000100240014B1860B5
:100B30007047C046040000200D488546FFF756FD6B
:100B40000C480D490D4A002302E0D458C450043328
:100B5000C4188C42F9D30A4A0A4C002301E01360FE
:100B60000432A242FBD300F019F8FFF7FDFCFEE7C8
:100B7000002000200000002010000020240C0008AD
:100B80001000002090000020FEE70300821893422E
:100B900000D1704719700133F9E7000070B50026E5
:100BA0000C4C0D4D641BA410A64209D1002600F088
:100BB00019F80A4C0A4D641BA410A64205D170BD59
:100BC000B300EB5898470136EEE7B300EB5898476F
:100BD0000136F2E71C0C00081C0C0008200C000871
:100BE0001C0C0008F8B5C046F8BC08BC9E4670470F
:0C0BF000F8B5C046F8BC08BC9E46704733
:100BFC0012040008340400083C04000844040008F3
:100C0C004C040008540400085C0400086404000848
:040C1C00E9000008E3
:040C2000C100000807
:100C24000100000000127A0001000000040000002E
:0400000508000B39AB
:00000001FF
